:100000000C9434000C9451000C9451000C94510049
:100010000C9451000C9451000C9451000C9451001C
:100020000C9451000C9451000C9451000C9451000C
:100030000C9451000C9451000C9451000C945100FC
:100040000C9451000C9451000C94CA000C94510073
:100050000C9451000C9451000C9451000C945100DC
:100060000C9451000C94510011241FBECFEFD8E026
:10007000DEBFCDBF11E0A0E0B1E0E6ECF2E002C0EF
:1000800005900D92AA30B107D9F711E0AAE0B1E0CE
:1000900001C01D92AE30B107E1F70E9416010C9429
:1000A00061010C9400001092C5008CE08093C400A4
:1000B000E0ECF0E0808182628083E1ECF0E080811E
:1000C0008869808308959091C00095FFFCCF80934C
:1000D000C6000895CF93DF93EC0102C00E94630035
:1000E00089918111FBCFDF91CF9108950E946A0021
:1000F0008AE00E9463008DE00C946300CF93DF934D
:100100001F92CDB7DEB764E60E944101805D9983FE
:100110000E9463009981892F6AE00E944101805DFD
:1001200099830E9463009981892F805D0F90DF91F0
:10013000CF910C946300CF93DF9360E177E20E944C
:100140004D01EC01862F805D0E946300CE0168EEB8
:1001500073E00E944D01EC01862F805D0E946300D8
:10016000CE0164E670E00E944D01EC01862F805DB7
:100170000E946300CE016AE070E00E944D01C82F2A
:10018000862F805D0E9463008C2F805DDF91CF9170
:100190000C9463001F920F920FB60F9211248F934D
:1001A0008091C60080930A0181E080930B018F91BA
:1001B0000F900FBE0F901F90189520910B012223D6
:1001C00041F020910A01FC01208310920B0181E093
:1001D000089580E00895EAE7F0E0808180688083F8
:1001E00080818760808308958830E0F490917C005E
:1001F000907F90937C0090917C00982B90937C0052
:1002000080917A00806480937A0080917A00806483
:1002100080937A008091780090917900392F20E0C6
:10022000282B02C020E030E0C90108950E94EB00B5
:100230000E94530080E091E00E94760080E00E94DE
:10024000F40090930D0180930C0183E50E946300FC
:1002500082E00E94630080910D010E946300809102
:100260000C010E94630085E40E94630089E091E034
:100270000E9476008BED95E00197F1F700C0000039
:10028000DDCF991B79E004C0991F961708F0961BE3
:10029000881F7A95C9F780950895AA1BBB1B51E169
:1002A00007C0AA1FBB1FA617B70710F0A61BB70BE6
:1002B000881F991F5A95A9F780959095BC01CD018B
:0602C0000895F894FFCF41
:0A02C600696E697420646F6E6500B4
:00000001FF
